{
    "contractName": "Contract",
    "abi": [
        {
            "inputs": [
                {
                    "internalType": "uint256",
                    "name": "_value",
                    "type": "uint256"
                }
            ],
            "stateMutability": "nonpayable",
            "type": "constructor"
        },
        {
            "inputs": [],
            "name": "value",
            "outputs": [
                {
                    "internalType": "uint256",
                    "name": "",
                    "type": "uint256"
                }
            ],
            "stateMutability": "view",
            "type": "function"
        }
    ],
    "bytecode": "608060405234801561001057600080fd5b506040516100c73803806100c78339818101604052602081101561003357600080fd5b50516000556081806100466000396000f3fe6080604052348015600f57600080fd5b506004361060285760003560e01c80633fa4f24514602d575b600080fd5b60336045565b60408051918252519081900360200190f35b6000548156fea264697066735822122007c357eec232686dfe134ccea32e6f3bf075b662247525dd7d2ef0c94df8601e64736f6c63430007050033",
    "sourcePath": "/Users/dkdaniz/Documents/develop/Pessoal/alchemy-ethereum-bootcamp/week4 - Smart Contract Basics/3 - Smart Contract Communication/1 - Contracts with ethers/1 - Getter/src/contract.sol",
    "compiler": {
        "name": "solc",
        "version": "0.7.5+commit.eb77ed08"
    },
    "functionHashes": {
        "value()": "3fa4f245"
    },
    "gasEstimates": {
        "creation": {
            "codeDepositCost": "25800",
            "executionCost": "infinite",
            "totalCost": "infinite"
        },
        "external": {
            "value()": "976"
        }
    }
}